:020000040800F2
:10000000A086012055020008813600081B2E00083A
:100010007D36000835060008C151000800000000C8
:100020000000000000000000000000006D39000822
:100030002108000800000000CD360008293A000819
:100040006F0200086F0200086F02000855380008B0
:100050006F0200086F0200086F0200086F020008BC
:100060006F0200086F0200086F0200086F020008AC
:100070006F0200086F0200086F0200086F0200089C
:1000800039060008010700086F0200086F02000827
:100090006F0200086F0200086F0200086F0200087C
:1000A0006F0200086F0200086F0200086F0200086C
:1000B0006F0200086F0200086F0200086F0200085C
:1000C0006F0200086F0200086F0200086F0200084C
:1000D0006F0200086F020008214000086F0200084C
:1000E0006F020008D13600086F0200086F02000896
:1000F0006F0200086F0200086F0200086F0200081C
:100100006F0200086F0200086F0200086F0200080B
:100110006F0200086F0200086F0200086F020008FB
:100120006F0200086F0200086F0200086F020008EB
:100130006F0200086F0200086F0200086F020008DB
:100140006F0200086F0200086F0200086F020008CB
:100150006F0200086F0200086F0200086F020008BB
:100160006F0200086F0200086F0200086F020008AB
:100170006F020008BD3600086F0200080000000092
:100180006F0200086F020008953A00086F0200082D
:100190006F0200086F0200086F0200086F0200087B
:1001A0006F0200086F0200086F02000800F002F8FA
:1001B00000F041F80AA090E8000C82448344AAF1C0
:1001C0000107DA4501D100F036F8AFF2090EBAE8BE
:1001D0000F0013F0010F18BFFB1A43F0010318477B
:1001E000E053000000540000103A24BF78C878C1E2
:1001F000FAD8520724BF30C830C144BF04680C602D
:10020000704700000023002400250026103A28BF74
:1002100078C1FBD8520728BF30C148BF0B60704778
:10022000732900F0A281002070471FB505F0CAF8BD
:100230001FBD10B510BD00F0CFF91146FFF7F5FF57
:1002400004F0FAFF00F0EDF903B4FFF7F2FF03BC8E
:1002500004F0BFFF0948804709480047FEE7FEE772
:10026000FEE7FEE7FEE7FEE7FEE7FEE7FEE7FEE766
:1002700004480549054A064B70470000313A00081A
:10028000AD010008A06E0120A0860120A07E012003
:10029000A07E0120704700000FB4044910B503AAE6
:1002A000029800F067F910BC5DF814FB64000020B0
:1002B00070B50C460546012A05D02878800600D581
:1002C000EA69002302E0012305E05B1C934202D2AD
:1002D000E05C0028F9D1A869E618C01AA861286A6C
:1002E000184428622846AFF3008004E0D5E90121D4
:1002F00014F8010B9047B442F8D32846AFF30080BE
:1003000070BD00002DE9F05F894604464FF0000AF9
:10031000DFF874B1FB44C0F820A02046E1688847AC
:10032000002874D0252806D0D4E901219047206AFE
:10033000401C2062F1E700265F462046E1688847BE
:100340002028054607DB312D05D2781910F8200C3E
:1003500008B10643F1E7B00701D526F00406C4F85A
:100360001CA00027C4F818A02A2D09D0284604F0A4
:1003700029FF38B304EB8708303DC8F8185019E05E
:1003800059F8041B204604EB87029161E168884715
:10039000012F054618D1E069002820DA26F0200652
:1003A0001DE0D8F8180000EB800005EB4000303865
:1003B000C8F818002046E1688847054604F002FFA7
:1003C0000028EED1012F0AD02E2D08D12046E16859
:1003D00088477F1C0546022F46F02006C4DBA06933
:1003E000002803DA404246F00106A061F00701D080
:1003F00026F010066C2D0BD0682D09D04C2D39D06D
:100400006A2D35D0742D35D07A2D33D016E038E0F2
:10041000E1682F4620468847B842054609D16C2F2F
:1004200026D04FF48060E1680643204688470546A1
:1004300004E06C2F1AD04FF4807006430DB3A5F181
:100440004100192802D8203546F400664A4629465C
:10045000204626604E46FFF7E3FE80B101280BD010
:10046000F61D26F0070000F1080956E74020E4E7F2
:100470008020D8E70020D6E706F104094DE728469A
:1004800052E7206ABDE8F09FF450000010B5203A12
:10049000C0F00B80B1E81850203AA0E81850B1E83D
:1004A0001850A0E81850BFF4F5AF5FEA027C24BFF3
:1004B000B1E81850A0E8185044BF18C918C0BDE8EA
:1004C00010405FEA827C24BF51F8043B40F8043BB3
:1004D00008BF7047D20728BF31F8023B48BF11F868
:1004E000012B28BF20F8023B48BF00F8012B7047C2
:1004F0004FF0000200B5134694469646203922BFBD
:10050000A0E80C50A0E80C50B1F12001BFF4F7AF07
:10051000090728BFA0E80C5048BF0CC05DF804EBE9
:10052000890028BF40F8042B08BF704748BF20F857
:10053000022B11F0804F18BF00F8012B7047704755
:1005400070477047704710B5436913B1AFF300802F
:1005500001E0FFF7ADFE012010BD127800F124018B
:100560000A7000224A700122EDE711684FF0FF3255
:10057000E9E70000074B70B50D467B4400F015F825
:100580000446284600F024F810B14FF0FF3070BD4B
:10059000204670BDB74C000000487047406E0120F7
:1005A00001694A1C02610878704700B58FB0CDE937
:1005B00001310021059105497944CDE90310114627
:1005C0006846FFF79FFE0FB000BD0000E5FFFFFF8C
:1005D000007B00F0800070477546FFF7DDFFAE46F8
:1005E00005006946534620F00700854618B020B53F
:1005F000FFF73EFEBDE820404FF000064FF0000739
:100600004FF000084FF0000B21F00701AC46ACE8BA
:10061000C009ACE8C009ACE8C009ACE8C0098D4627
:10062000704710B50446AFF300802046BDE8104087
:10063000FFF70ABE00BFFEE710B52C4800682C4942
:10064000884205D92A485438006800F400601BE04D
:10065000264800682749884205D925485838006847
:1006600000F4006010E021480068224960398842A7
:1006700005D92048B838406800F4006004E01D48FF
:10068000B838006800F4006030B3184800681849B2
:10069000884204D9C81416494C39086019E0134837
:1006A00000681449884204D9C814114950390860B7
:1006B0000FE00E4800680F496039884204D9C81419
:1006C0000C49B839C86004E04FF400600949B839F2
:1006D0008860094802F097F9C8220849064802F0E4
:1006E00049FB024800F0B4F910BD0000DC190020FD
:1006F00058640240B86002401419002034140020ED
:1007000010B52B4800682B49884205D92948543830
:10071000006800F400101BE0254800682649884264
:1007200005D924485838006800F4001010E020482B
:10073000006821496039884205D91F48B8384068A7
:1007400000F4001004E01C48B838006800F4001001
:1007500048B3174800681749884205D94FF400107C
:1007600014494C3908601BE011480068124988425E
:1007700005D94FF400100F495039086010E00C48BB
:1007800000680D496039884205D94FF400100A49C4
:10079000B839C86004E04FF400100749B8398860E0
:1007A000064802F030F9024800F052F910BD00008E
:1007B0008419002058640240B860024014190020D7
:1007C0000146087810381823B0FBF3F20848805C23
:1007D0004865032A05D908686FF30900001D0865FC
:1007E00003E008686FF309000865086D70470000B2
:1007F000DE53000830B50468246824F480240568BA
:100800002C60046863608468402C04D10468A26092
:100810000468E16003E00468A1600468E26030BD40
:10082000704730B50246002300240868012816D01E
:1008300013686FF30E03D1E901052843CD682843FF
:100840000D6928434D6928438D692843CD692843A4
:100850000D6A28434D6A28430343136019E0136867
:100860006FF30E03D1E9070528434D6A284303437C
:1008700054686FF30E04D1E901052843CD6828437D
:100880000D6928434D6928438D692843044313604B
:100890005460002030BD0246506940EA410050617A
:1008A00000207047F8B506460C461546002000901B
:1008B0000027D4E900010843A168491E40EA41101D
:1008C000E16840EA412000900098306100F058FB58
:1008D000074609E0681C38B125B100F051FBC01B88
:1008E000A84201D90320F8BDB06900F0200000281B
:1008F000F0D100BFF7E770B503461546002200248B
:10090000012D1FD09A6802F070420868401E4E68A0
:10091000761E40EA06168868401E46EA0026C86829
:10092000401E46EA0036088A401E46EA0046888A8B
:10093000401E46EA0056087E401E46EA006002431A
:100940009A6022E0DA6802F070420868401E4E6841
:10095000761E40EA06168868401E46EA0026088A87
:10096000401E46EA0046087E401E46EA00600243FA
:100970009C6804F07044C868401E0603888A401EC4
:1009800046EA00500443DA609C60002070BD70B5F8
:10099000044600252068006820F0010021680860F6
:1009A00000F0EEFA054612E000F0EAFA401BB0F55E
:1009B0007A7F0CD9E06C40F02000E06400BF00209A
:1009C00084F8340000BF032084F8350070BD20682F
:1009D000006800F001000028E6D100BF84F8340070
:1009E00000BF012084F835000020EFE770B5044611
:1009F0000CB9012070BD94F83500022801D1012006
:100A0000F8E72068006820F00100216808600020F5
:100A10002168086021684860216888602168C86092
:100A2000216808612120216848612046FFF7C8FE3F
:100A3000054694F854103F208840A8600020E064E8
:100A400084F8350000BF84F8340000BF00BFD1E750
:100A500070B50446256D286894F85420082191400B
:100A6000084000B32068006800F00400D8B1206896
:100A7000006820F004002168086094F854100820F1
:100A80008840A860E06C40F00100E064042084F835
:100A9000350000BF002084F8340000BFA06C10B106
:100AA0002046A16C8847286894F854206D499140ED
:100AB000084000B32068406900F08000D8B1206889
:100AC000406920F080002168486194F8541065481E
:100AD0008840A860E06C40F00200E064042084F8E4
:100AE000350000BF002084F8340000BFA06C10B1B6
:100AF0002046A16C8847286894F854205949C91C9D
:100B00009140084008B32068006800F00200E0B19E
:100B10002068006820F002002168086094F85410F2
:100B20005048C01C8840A860E06C40F00400E064BD
:100B3000042084F8350000BF002084F8340000BF92
:100B4000A06C10B12046A16C8847286894F8542006
:100B5000102191400840C0B32068006800F00800F0
:100B600098B32068006800F48020B0B194F8541065
:100B700010208840A8602068006800F4002018B9A0
:100B8000312084F835001BE02068006800F4002064
:100B9000B0B1412084F8350012E02068006800F40C
:100BA000807028B92068006820F00800216808607B
:100BB00094F8541010208840A860312084F8350043
:100BC000206C10B12046216C8847286894F8542086
:100BD00020219140084018B32068006800F0100000
:100BE000F0B12068006800F48020D0B194F854106F
:100BF00020208840A8602068006800F4002028B900
:100C0000606C68B12046616C884729E02068006804
:100C100000F4002020B1E06B10B12046E16B884762
:100C20001EE02068006800F4807028B92068006821
:100C300020F010002168086094F8541020208840AB
:100C4000A860E06CE064112084F8350000BF00204B
:100C500084F8340000BFE06B10B12046E16B884798
:100C600070BD00000100800070B5044600250CB97D
:100C7000012070BD606A00B100BF022084F8350019
:100C80002068056818480540D4E901010843E16877
:100C900008432169084361690843A1690843E16980
:100CA0000843216A08430543606A042803D1D4E954
:100CB0000B0108430543206805602068456925F05D
:100CC0000705606A0543606A042801D1A06A0543EC
:100CD000206845612046FFF773FD0020E064012095
:100CE00084F835000020C4E73F8010F02DE9F04182
:100CF00004460D4616461F4600BF94F834000128EE
:100D000002D10220BDE8F081012084F8340000BF48
:100D1000022084F835002068006820F00100216876
:100D200008603B46324629462046FFF763FD2068AF
:100D3000006840F01E00216808602068406940F0AB
:100D40008000216848612068006840F00100216847
:100D500008600020D6E70000F8B502460B460025E3
:100D6000002400200021E6E0012606FA01F51E68B5
:100D700006EA0504AC4273D15E68022E02D05E68BA
:100D8000122E13D1CF0802F1200656F827004E0785
:100D9000F70E0F26BE40B0434F07FF0E1E69BE4040
:100DA0003043CF0802F1200646F8270010684F00B4
:100DB0000326BE40B0431E7906F003064F00BE4036
:100DC000304310605E68012E08D05E68022E05D0A8
:100DD0005E68112E02D05E68122E13D190684F000B
:100DE0000326BE40B0434F00DE68BE4030439060F3
:100DF000506801268E40B0431E79C6F300168E401F
:100E000030435060D0684F000326BE40B0434F00CF
:100E10009E68BE403043D0605E6806F08056B6F1F2
:100E2000805FA8D100BF00260096454E366846F484
:100E30008046434F3E603E46366806F48046009644
:100E400000BF00BF3F4E8F0856F827008E07370FB0
:100E50000F26BE40B0433C4EB24202D100262EE0E7
:100E600068E03A4EB24201D1012628E0384EB24243
:100E700001D1022623E0374EB24201D103261EE003
:100E8000354EB24201D1042619E0344EB24201D1AE
:100E9000052614E0324EB24201D106260FE0314E53
:100EA000B24201D107260AE02F4EB24201D10826F4
:100EB00005E02E4EB24201D1092600E00A268F0736
:100EC0003F0FBE4030431F4E8F0846F82700284E84
:100ED0003068A0435E6806F48036B6F5803F00D1E6
:100EE0002043234E3060361D3068A0435E6806F410
:100EF0000036B6F5003F00D120431D4E361D306050
:100F0000361D3068A0435E6806F48016B6F5801F73
:100F100000D12043164E08363060361D3068A0439D
:100F20005E6806F40016B6F5001F00D12043104E8F
:100F30000C363060491C1029FFF416AFF8BD0000D4
:100F400044380240083801400000024000040240DA
:100F500000080240000C0240001002400014024051
:100F600000180240001C0240002002400024024001
:100F7000003C01400AB1816101E00B0483617047CC
:100F800001480068704700005C00002002480068CB
:100F9000401C0149086070475C00002070B50446A1
:100FA00000F020FE4FF47A71B0FBF1F5284601F015
:100FB00010FD00222146501E00F06BFA002070BD8B
:100FC00070B504460E46154600BF94F8A0000128EF
:100FD00001D1022070BD012084F8A00000BF0220D2
:100FE00084F8A10005EB850101EBC50204F138018D
:100FF00001EB820034223146FFF748FA2A46314697
:10100000204602F081F901202168486284F8A1009D
:1010100000BF002084F8A00000BF00BFDAE7000096
:1010200070B50446002500260CB9012070BD94F867
:10103000A10028B9002084F8A000204600F084F820
:10104000022084F8A1002068806920F070402168A7
:101050008861D4E901010843E16808432169084334
:10106000216889690843216888612068806835495A
:10107000084021688860A08A050420688068A1690A
:1010800029430843216888602068C0682D490840CA
:101090002168C860A08B05042068C068216A2943C4
:1010A00008432168C8602068006926490840216813
:1010B0000861A08C050420680069A16A29430843DF
:1010C00021680861206840691E490840216848611C
:1010D000A08D050420684069216B294308432168DD
:1010E000486194F83500050294F83600060420683B
:1010F000C06A00F07F402168C86246EA050094F8A3
:10110000341008432168C96A08432168C86220680E
:10111000406B40F00400216848632068406B40F059
:101120000200216848632068806940F0010021685E
:1011300088610020C4F8A400012084F8A1000020E8
:1011400074E7000000F800F010B586B004461421E2
:1011500001A8FFF7CDF900BF002000908548006886
:1011600040F08060834908600846006800F08060B5
:10117000009000BF00BF00BF002000907D481438E1
:10118000006840F480707B491439086008460068A4
:1011900000F48070009000BF00BF00BF00200090EE
:1011A0000846006840F0200008600846006800F02B
:1011B0002000009000BF00BF00BF00200090084644
:1011C000006840F0010008600846006800F0010077
:1011D000009000BF00BF00BF0020009008460068DC
:1011E00040F0020008600846006800F0020000902D
:1011F00000BF00BF00BF002000900846006840F418
:10120000007008600846006800F40070009000BF9D
:1012100000BF00BF002000900846006840F48060D6
:1012200008600846006800F48060009000BF00BFBE
:1012300000BF002000900846006840F040000860B1
:101240000846006800F04000009000BF00BF48154D
:1012500001900120029003900320049001A94648C8
:10126000FFF77AFD4FF48070019001200290039007
:101270000320049001A94148FFF76EFD01221102ED
:101280003E48FFF777FE4FF48C4001900220029019
:1012900000200390032004900E20059001A93848F7
:1012A000FFF75AFD4FF48060019002200290002069
:1012B0000390032004900E20059001A92E48FFF70B
:1012C0004BFD482001900220029000200390032053
:1012D00004900E20059001A92A48FFF73DFD032048
:1012E0000190022002900020039003200490092026
:1012F000059001A92448FFF72FFD48F258400190BE
:101300000220029000200390032004900E200590FC
:1013100001A91E48FFF720FD4FF4806001900220D4
:10132000029000200390032004900E20059001A954
:101330001548FFF711FD6720019002200290002060
:101340000390032004900E20059001A91048FFF798
:1013500003FD4FF480500190022002900020039082
:10136000032004900920059001A90A48FFF7F4FC26
:1013700006B010BD4438024000140240000802408C
:10138000002002400000024000040240002402400D
:1013900000280240001802402DE9F04104460E46A4
:1013A0001746984600BF94F8A000012802D10220F9
:1013B000BDE8F081012084F8A00000BF022084F87D
:1013C000A10008EB880000EBC80104F1380000EB35
:1013D00081052E60A86A30446860AF60E86A3844CE
:1013E000E86042462946204601F08EFF0120216830
:1013F000486284F8A10000BF002084F8A00000BF6C
:1014000000BFD5E72DE9F04105460E461746984640
:1014100000BF95F8A000012802D10220BDE8F081AC
:10142000012085F8A00000BF022085F8A10008EB8C
:10143000880000EBC80105F1380000EB81040020B2
:1014400020602068304460600020A060A0683844BC
:10145000E060A662E76242462146284601F054FF5A
:1014600001202968486285F8A10000BF002085F8A6
:10147000A00000BF00BFD1E700BF00F01F020121A4
:1014800091404209920002F1E022C2F8001100BF2F
:1014900070472DE9F05F80460D461646002702F0A2
:1014A000F1F8074639462A46334601F00700C0F1F5
:1014B000070ABAF1040F02D94FF0040A01E0C0F1A3
:1014C000070AD14600F1040ABAF1070F02D24FF021
:1014D000000A01E0A0F1030AD4464FF0010A0AFA1B
:1014E00009FAAAF1010A0AEA020A0AFA0CFA4FF00A
:1014F000010B0BFA0CFBABF1010B0BEA030B4AEAF5
:101500000B042146404602F0C5F8BDE8F09F0000FC
:1015100038B5002400BF002000902348006840F048
:101520008050214908600846006800F08050009013
:1015300000BF00BF0120010491FAA1F1B1FA81F1CD
:101540001A4A42F82100FFF71BFD044607E0FFF7A7
:1015500017FD001BB0F57A7F01D9032038BD144870
:10156000406800F48030B0F5803FF0D101204104A4
:1015700091FAA1F1B1FA81F10C4A42F82100FFF78A
:10158000FFFC044607E0FFF7FBFC001BB0F57A7F89
:1015900001D90320E2E70648406800F40030B0F5C6
:1015A000003FF0D10020D9E74038024000000E4251
:1015B000007000400120010291FAA1F1B1FA81F11D
:1015C000014A42F82100704700000E42F8B5044677
:1015D00000250026207800F0010020B9207800F0D6
:1015E0000200022866D10020CC498866FFF7C8FCBB
:1015F000054606E0FFF7C4FC401B642801D9032020
:10160000F8BDC7480068C0F3C0600028F2D1207858
:1016100000F0010098B147F6C07191FAA1F1B1FA5A
:1016200081F1606888404FF0E04292FAA2F2B2FA8B
:1016300082F2A16891400843B9498431086020785A
:1016400000F00200022821D1B5488430006800F083
:10165000E0404FF0E04191FAA1F1B1FA81F120FAB6
:1016600001F660688101207B41EA006040EA067073
:10167000AB4984310860AA488C30006820F01F0014
:10168000E169491E0843A6498C3108600120A3493D
:101690008866FFF775FC054606E0FFF771FC401B06
:1016A000642801D90320ABE79D480068C0F3C060FF
:1016B0000028F2D0207800F00400042804D020781C
:1016C00000F0080008287DD1002094490867FFF742
:1016D00057FC054606E0FFF753FC401B642801D980
:1016E00003208DE78E480068C0F340700028F2D1D7
:1016F000207800F00400042834D18948883000683C
:1017000000F0E0404FF0E04191FAA1F1B1FA81F12F
:1017100020FA01F647F6C07191FAA1F1B1FA81F110
:10172000206988404FF0706292FAA2F2B2FA82F217
:101730006169914008434FF0E04191FAA1F1B1FA9B
:1017400081F106FA01F10843754988310860081DE6
:10175000006820F4F851206A401E41EA00207049D8
:101760008C310860207800F00800082834D16C48DB
:101770008830006800F070604FF0706191FAA1F15C
:10178000B1FA81F120FA01F647F6C07191FAA1F1A0
:10179000B1FA81F1206988404FF0706191FAA1F1AE
:1017A000B1FA81F106FA01F108434FF0E04292FAF2
:1017B000A2F2B2FA82F2A1699140084358498831F5
:1017C000086000E01CE0081D006820F44030616AF9
:1017D000084353498C310860012050490867FFF7DE
:1017E000CFFB054606E0FFF7CBFB401B642801D981
:1017F000032005E74A480068C0F340700028F2D093
:10180000207800F0200020287DD100BF002000902B
:1018100043484030006840F0805041494031086002
:101820000846006800F08050009000BF00BF3D48AF
:10183000006840F480703B490860FFF7A1FB054653
:1018400006E0FFF79DFB401B642801D90320D7E683
:101850003448006800F480700028F2D030487030BE
:10186000006800F44070218D01F4407188424AD034
:101870002B487030006820F4407601202A49086027
:101880000020086026487030066006F0020098B11B
:10189000FFF776FB054608E0FFF772FB401B41F2BD
:1018A0008831884201D90320AAE61D4870300068BB
:1018B000C0F340000028EFD000BF208D00F440703E
:1018C000B0F5407F0CD116480830006820F4F810BD
:1018D000164AA16A1140084311490831086007E01F
:1018E0000F480830006820F4F8100D4908310860EE
:1018F0000B4870300068218DC1F30B010843084983
:101900007031086000BF207800F01000102803D16B
:1019100094F82C0006490860002071E60000474258
:101920000038024000700040400E4742FFFCFF0FAD
:10193000E011474270B504460E460025A7480068EE
:1019400000F00F00B0426FD2A4490E700846006844
:1019500000F00F00B04201D0012070BD207800F0EF
:101960000200022807D19E48006820F0F000A1681C
:1019700008439B490860207800F0010000283ED011
:101980006068012807D1964808380068C0F34040D5
:10199000B8B90120E1E76068022802D06068032836
:1019A00007D18F4808380068C0F3406048B901206B
:1019B000D3E78B4808380068C0F3400008B901201D
:1019C000CBE78748006820F003006168084384493A
:1019D0000860FFF7D5FA05466068012810D108E0D5
:1019E000FFF7CEFA401B41F28831884201D903202B
:1019F000B3E77B48006800F00C000428F0D1CDE08C
:101A00006068022811D108E0FFF7BAFA401B41F2E2
:101A10008831884201D903209FE77148006800F0AF
:101A20000C000828F0D1B9E024E06068032810D148
:101A300008E0FFF7A5FA401B41F28831884201D93E
:101A400003208AE76648006800F00C000328F0D104
:101A5000A4E008E0FFF794FA401B41F28831884285
:101A600001D9032079E75E48006800F00C000028E7
:101A7000F0D193E0207800F00200022807D1584806
:101A8000006820F0F000A1680843554908602078FC
:101A900000F00100002877D06068012807D1504885
:101AA00008380068C0F34040B8B9012055E76068C5
:101AB000022802D06068032807D149480838006826
:101AC000C0F3406048B9012047E74548083800683E
:101AD000C0F3400008B901203FE74148006820F00A
:101AE0000300616808433E490860FFF749FA05466C
:101AF0006068012810D108E0FFF742FA401B41F26C
:101B00008831884201D9032027E73548006800F072
:101B10000C000428F0D137E06068022810D108E0FA
:101B2000FFF72EFA401B41F28831884201D9032089
:101B300013E72B48006800F00C000828F0D123E0E0
:101B40006068032810D108E0FFF71AFA401B41F241
:101B50008831884201D90320FFE62148006800F05F
:101B60000C000328F0D10FE008E0FFF709FA401B52
:101B700041F28831884201D90320EEE61848006816
:101B800000F00C000028F0D114490E7008460068DF
:101B900000F00F00B04201D00120DEE6207800F016
:101BA0000400042807D10E48006820F4E050E168E2
:101BB00008430B490860207800F00800082808D185
:101BC0000748006820F46040216940EAC1000449E8
:101BD00008600F20FFF7E2F90020BEE6003C02405B
:101BE0000838024010B500F045F80949096801F0CD
:101BF000F001F02292FAA2F2B2FA82F2D140054A42
:101C0000515CC840044908600846006810BD0000E7
:101C100008380240CE5300082400002010B5FFF71A
:101C2000E1FF0749096801F4E0514FF4E05292FAEC
:101C3000A2F2B2FA82F2D140024A515CC84010BD11
:101C400008380240CE53000810B5FFF7CBFF074914
:101C5000096801F460414FF4604292FAA2F2B2FACC
:101C600082F2D140024A515CC84010BD083802409F
:101C7000CE53000870B50021002200230020274C1D
:101C8000246804F00C0424B1042C04D0082C41D1A5
:101C900003E0234840E023483EE0204C241F246812
:101CA00004F03F011D4C241F246804F4800484B117
:101CB0001C4CB4FBF1F5194C241F246847F6C07680
:101CC000344096FAA6F6B6FA86F6F44005FB04F21E
:101CD0000FE0134CB4FBF1F5104C241F246847F6B9
:101CE000C076344096FAA6F6B6FA86F6F44005FBBE
:101CF00004F20A4C241F246804F440344FF44035A5
:101D000095FAA5F5B5FA85F5EC40641C6300B2FBC5
:101D1000F3F001E0024800BF00BF70BD0838024088
:101D20000024F40040787D0138B504460025207871
:101D300000F00100002866D0F748006800F00C00B1
:101D400004280DD0F448006800F00C00082813D1D6
:101D5000F148001F006800F48000B0F5800F0BD13F
:101D6000ED4808380068C0F3404000284BD0606858
:101D7000002848D1012038BD0020E749891F08709C
:101D8000FFF7FEF8054608E0FFF7FAF8401B41F2BE
:101D90008831884201D90320EDE7DF480838006820
:101DA000C0F340400028EFD12079DB49891F08703B
:101DB0006068A0B1FFF7E4F8054608E0FFF7E0F837
:101DC000401B41F28831884201D90320D3E7D24831
:101DD00008380068C0F340400028EFD013E0FFF758
:101DE000CFF8054608E0FFF7CBF8401B41F28831F9
:101DF000884201D90320BEE7C74808380068C0F30D
:101E000040400028EFD1207800F00200022869D17C
:101E1000C148006800F00C0058B1BF48006800F0ED
:101E20000C00082821D1BC48001F006800F4800085
:101E3000D8B9B94808380068C0F3400020B1E0685C
:101E4000012801D0012096E7B3480838006820F047
:101E5000F800F82292FAA2F2B2FA82F221699140D5
:101E60000843AD49083908603CE0E06828B3012028
:101E7000AA490860FFF784F8054606E0FFF780F8F6
:101E8000401B642801D9032075E7A348083800687F
:101E9000C0F340000028F1D09F480838006820F0C7
:101EA000F800F82292FAA2F2B2FA82F22169914085
:101EB000084399490839086014E0002097490860F0
:101EC000FFF75EF8054606E0FFF75AF8401B642866
:101ED00001D903204FE7904808380068C0F340005C
:101EE0000028F1D1207800F0080008282CD1606982
:101EF000A8B101208A490860FFF742F8054606E0CC
:101F0000FFF73EF8401B642801D9032033E78248DD
:101F10006C300068C0F340000028F1D014E00020CD
:101F20007F490860FFF72CF8054606E0FFF728F820
:101F3000401B642801D903201DE777486C300068F6
:101F4000C0F340000028F1D1207800F004000428FC
:101F50006FD100BF002000906F483830006840F01B
:101F600080506D49383108600846006800F08050A4
:101F7000009000BF00BF6B48006840F48070694962
:101F80000860FEF7FDFF054606E0FEF7F9FF401B7F
:101F9000642801D90320EEE66248006800F48070EE
:101FA0000028F2D000205C4968310870FEF7E8FF95
:101FB000054608E0FEF7E4FF401B41F28831884205
:101FC00001D90320D7E6544868300068C0F34000C8
:101FD0000028EFD1207A504968310870A068A0B17C
:101FE000FEF7CEFF054608E0FEF7CAFF401B41F2B0
:101FF0008831884201D90320BDE64748683000682F
:10200000C0F340000028EFD013E0FEF7B9FF05460B
:1020100008E0FEF7B5FF401B41F28831884201D944
:102020000320A8E63C4868300068C0F34000002860
:10203000EFD1A069F0B33848006800F00C00082820
:1020400072D0A069022850D1002034490866FEF7FA
:1020500097FF054606E0FEF793FF401B642801D971
:10206000032088E62C4808380068C0F34060002848
:10207000F1D1D4E90701084347F6C07292FAA2F2FF
:10208000B2FA82F2616A914008430122A16AC2EB6E
:1020900051014FF4403292FAA2F2B2FA82F2914028
:1020A00008434FF0706292FAA2F2B2FA82F2E16A49
:1020B000914000E03AE008431749091F08600120F9
:1020C00016490866FEF75CFF054606E0FEF758FF76
:1020D000401B642801D903204DE60F4808380068EA
:1020E000C0F340600028F1D020E000200B490866D2
:1020F000FEF746FF054606E0FEF742FF401B642858
:1021000001D9032037E6044808380068C0F340606E
:102110000028F1D10AE007E00838024000004742F9
:10212000800E474200700040012024E6002022E695
:10213000704702460023106800F1500303EB81034F
:102140001868704710B50023046804F1500303EBCE
:1021500081031A6010BD00002DE9F04104460D46D0
:102160001646002700BF207F012802D10220BDE8CB
:10217000F0810120207700BF0220607700BFCA20D5
:102180002168486253202168486200BF2068806847
:1021900000F48060E0B1FEF7F3FE074612E0FEF7C0
:1021A000EFFEC01BB0F57A7F0CD900BFFF2021687D
:1021B000486200BF0320607700BF0020207700BF87
:1021C0000320D4E72068C068C0F380000028E6D16F
:1021D0002068806820F4806021688860FEF7D0FE67
:1021E000074612E0FEF7CCFEC01BB0F57A7F0CD993
:1021F00000BFFF202168486200BF0320607700BF56
:102200000020207700BF0320B1E72068C068C0F33A
:1022100080000028E6D0206845612068806820F0B2
:1022200007002168886020688068304321688860E2
:102230001348006840F480001149086010480830D5
:10224000006840F480000E4908310860206880680A
:1022500040F48040216888602068806840F4806095
:102260002168886000BFFF202168486200BF01200C
:10227000607700BF0020207700BF00BF77E7000035
:10228000003C01407047000010B504462068C0685B
:10229000C0F3802078B12068806800F4804050B19D
:1022A0002046FFF7EFFF2068C06800F0800060F470
:1022B00090602168C8604FF48000024908600120E6
:1022C000607710BD143C014010B5044601A0FDF735
:1022D000E3FF10BD414C41524D2041210D0A000049
:1022E00010B504462068C068C0F3002078B12068AB
:1022F000806800F4805050B12046FFF7E5FF206869
:10230000C06800F0800060F4C0702168C860206878
:10231000C068C0F3402078B12068806800F40050A5
:1023200050B12046FFF704FF2068C06800F080002D
:1023300060F420702168C8604FF4003002490860E2
:102340000120607710BD0000143C014070B50546C7
:102350000B4616460024286840680E4900EA01042E
:10236000200CD870C4F30420587004F03F0098701B
:10237000C4F3423018705EB9D87801F0B1F9D87062
:10238000587801F0ADF95870987801F0A9F9987073
:10239000002070BD3FFFFF0070B504460B46164697
:1023A00000252068806A586020680069C0F30E002C
:1023B0009860206800680F4900EA0105C5F30540F0
:1023C0001870C5F30620587005F07F00987005F46A
:1023D0008000000CD8705EB9187801F081F918708F
:1023E000587801F07DF95870987801F079F9987073
:1023F000002070BD7F7F7F0010B504460CB901201E
:1024000010BD607F20B900202077204600F04EF8F4
:102410000220607700BFCA202168486253202168EB
:10242000486200BF204601F073F940B100BFFF20B1
:102430002168486200BF042060770120E0E720683F
:1024400080681949084021688860216960680843EC
:1024500061690843216889680843216888602168A8
:10246000E068086120680169208941EA004021682C
:1024700008612068C06820F080002168C86020687A
:10248000006C20F48020216808642068006CA16939
:1024900008432168086400BFFF202168486200BF2C
:1024A000012060770020ABE7BFFF8FFF10B59AB027
:1024B000044600BF002001901148006840F08050A1
:1024C0000F4908600846006800F08050019000BF86
:1024D00000BFFFF76FF804200E9000201490012039
:1024E00010900EA8FFF720FC20200290C0000C9056
:1024F00002A8FFF76BF80120024908601AB010BD6E
:10250000403802403C0E47422DE9F04104460D465A
:102510001646002700BF207F012802D10220BDE817
:10252000F0810120207700BF022060774EB96878E3
:1025300000F01000102804D1687800F0EF000A3095
:10254000687086B9E87801F0D6F80304687801F07D
:10255000D2F843EA0023A87801F0CDF803432878A5
:1025600043EA403711E0687801F0BAF80746A878E6
:1025700001F0B6F80746E8780004697840EA0120DF
:10258000A9780843297840EA413700BFCA2021686A
:10259000486253202168486200BF204601F0B8F825
:1025A00060B100BFFF202168486200BF042060774F
:1025B00000BF0020207700BF0120B0E71648384058
:1025C000216848602068C06820F080002168C860E9
:1025D0002068806800F0200080B9204600F0B8F83C
:1025E00060B100BFFF202168486200BF042060770F
:1025F00000BF0020207700BF012090E700BFFF2030
:102600002168486200BF0120607700BF002020776A
:1026100000BF00BF83E700003FFFFF002DE9F0414E
:1026200004460D461646002700BF207F012802D130
:102630000220BDE8F0810120207700BF02206077F2
:10264000CEB92068806800F0400000B102E00020B0
:10265000E87000BF287801F04EF80304687801F0B4
:102660004AF843EA0023A87801F045F80343E878E4
:1026700043EA004716E02068806800F0400020B17F
:10268000287801F02DF8074602E00020E87000BF2E
:1026900028780004697840EA0120A9780843E9789D
:1026A00040EA014700BFCA202168486253202168E0
:1026B000486200BF204601F02BF860B100BFFF2048
:1026C0002168486200BF0420607700BF00202077A7
:1026D00000BF0120ADE71D48384021680860206830
:1026E000806820F4802021688860D5E903010843D0
:1026F000216889680843216888602068C06820F0E4
:1027000080002168C8602068806800F0200080B9DF
:10271000204600F01DF860B100BFFF20216848622C
:1027200000BF0420607700BF0020207700BF012099
:102730007FE700BFFF202168486200BF012060776B
:1027400000BF0020207700BF00BF72E77F7F7F00BF
:1027500070B5044600252068C06820F0A0002168FC
:10276000C860FEF70DFC054607E0FEF709FC401BBC
:10277000B0F57A7F01D9032070BD2068C06800F0F1
:1027800020000028F1D00020F6E770B504460D4681
:102790000CB9012070BD94F82C0028B9002084F8F1
:1027A0002D00204600F012F8022084F82C00211D94
:1027B0002068FEF736F82946D4E90002FEF79BF8B8
:1027C000012084F82C000020E4E7000010B586B05A
:1027D0000446142101A8FDF78BFE00BF00200090E5
:1027E0005348006840F001005149086008460068FD
:1027F00000F00100009000BF00BF00BF002000906B
:102800004B480838006840F0200049490839086002
:102810000846006800F02000009000BF00BF00BF25
:10282000002000900846006840F004000860084658
:10283000006800F00400009000BF00BF00BF00204F
:1028400000900846006840F04000086008460068B4
:1028500000F04000009000BF00BF00BF00200090CB
:102860000846006840F0100008600846006800F064
:102870001000009000BF00BF00BF0020009008467D
:10288000006840F0080008600846006800F0080092
:10289000009000BF00BF4FF63F0001900220029061
:1028A00000200390032004900C20059001A92148EA
:1028B000FEF752FA0D2001900220029000200390B2
:1028C000032004900C20059001A91B48FEF744FA50
:1028D00048F237100190022002900020039003205C
:1028E00004900C20059001A91448FEF735FA4FF624
:1028F0008370019002200290002003900320049036
:102900000C20059001A90E48FEF726FA4CF2037040
:1029100001900220029000200390032004900C20DC
:10292000059001A90748FEF717FA06B010BD000090
:1029300038380240001402400008024000180240EB
:1029400000100240000C024070B504460D4694F899
:102950002C00022800D170BD022084F82C002946EA
:102960002068FDF798FF012084F82C000020F2E792
:1029700070B504460D46164694F82C00022800D186
:1029800070BD022084F82C00324629462068FDF7ED
:1029900089FF2868022803D1052084F82C0002E072
:1029A000012084F82C000020EAE7042808D14FF029
:1029B000E021096941F004014FF0E022116107E0D4
:1029C0004FF0E021096921F004014FF0E02211618C
:1029D000704770B504462546681EB0F1807F01D36C
:1029E00001200FE0681E4FF0E02148610F214FF0F9
:1029F000FF3000F04FFE00204FF0E02188610720FB
:102A00000861002070BD10B504462068406920F0C0
:102A10008000216848612068406920F040002168FA
:102A20004861206B10B1206BFDF7B1FF606B10B1F6
:102A3000606BFDF7ACFF012084F83900002010BD69
:102A40007047F8B50446002500262068006800F0AD
:102A500001052068C06800F480767DB176B100BFC2
:102A60000020009020680068009020684068009076
:102A700000BF00BFE06B40F00100E0632068006829
:102A8000C0F340052068406900F001067DB176B1D1
:102A900000BF002000902068006800902068406817
:102AA000009000BF00BFE06B40F00400E0632068CE
:102AB0000068C0F380052068406900F001067DB120
:102AC00076B100BF00200090206800680090206868
:102AD0004068009000BF00BFE06B40F00200E06380
:102AE00020680068C0F3C0052068406900F0010656
:102AF0007DB176B100BF0020009020680068009092
:102B000020684068009000BF00BFE06B40F0080004
:102B1000E06320680068C0F340152068C06800F0DA
:102B200020061DB116B1204601F053F82068006858
:102B3000C0F3C0152068C06800F080061DB116B152
:102B4000204601F0B7F920680068C0F380152068BE
:102B5000C06800F040061DB116B1204601F021F812
:102B6000E06B28B1012084F839002046FFF768FFA8
:102B7000F8BD10B504460CB9012010BDA06900B124
:102B800000E000BF94F8390028B9002084F838002C
:102B9000204600F025F8022084F839002068C0683B
:102BA00020F400502168C860204601F071F82068C8
:102BB000006920F49040216808612068406920F095
:102BC0002A00216848612068C06840F400502168EC
:102BD000C8600020E063012084F839000020CCE7C1
:102BE00010B586B004462249206888423DD100BF16
:102BF000002000901F48006840F020001D49086038
:102C00000846006800F02000009000BF00BF00BF31
:102C10000020009017481030006840F080401549AF
:102C2000103108600846006800F08040009000BF46
:102C300000BF80200190022002900120039002201A
:102C400004900820059001A90B48FEF785F8402064
:102C5000019002200290012003900220049008209D
:102C6000059001A90448FEF777F806B010BD0000F2
:102C70000078004030380240001402402DE9F0474F
:102C800004460D46164699464FF0000894F83980E0
:102C9000B8F1010F02D0B8F1120F69D105B116B920
:102CA0000120BDE8F08700BF94F83800012801D169
:102CB0000220F6E7012084F8380000BF0020E0631E
:102CC00094F83900122803D1322084F8390002E048
:102CD000222084F83900A685E68535E0E08D401E87
:102CE000E085A068B0F5805F18D14B460022202116
:102CF000204601F017F908B10320D2E72F462069DA
:102D000030B920684068C0F308003880AD1C1BE073
:102D100020684068C0B238806D1C15E04B46002228
:102D20002021204601F0FEF808B10320B9E7206910
:102D300020B92068406805F8010B05E0206840686C
:102D400000F07F0005F8010BE08D0028C6DC94F848
:102D50003900322803D1122084F8390002E0012022
:102D600084F8390000BF002084F8380000BF98E7DD
:102D7000022096E7F7B504461546002794F8397007
:102D8000012F01D0122F3CD1019800B10DB90120C3
:102D9000FEBD00BF94F83800012801D10220F7E7FA
:102DA000012084F8380000BF0198A062A5850020AA
:102DB000E06394F83900122803D1322084F83900F6
:102DC00002E0222084F839000F48616BC8630F4885
:102DD000616B08640E48616B886401AE32682368D9
:102DE000191D2B46606BFDF781FF2068406940F09C
:102DF00040002168486100BF002084F8380000BF0F
:102E0000C6E70220C4E70000573B0008953B0008D6
:102E1000353B000870477047704700BFFEE710B5AC
:102E200000F09EF910BD000010B50A48007840B9C6
:102E3000012008490870012280210748FEF79AF80E
:102E400007E0002003490870002280210248FEF7B5
:102E500091F810BD220000200020024000B587B08C
:102E600000BF002001901248006840F0080010499F
:102E700008600846006800F00800019000BF00BF2D
:102E80003020029001200390002004900220059041
:102E900002A90848FDF760FF002210210548FEF74F
:102EA00069F8002220210348FEF764F807B000BD4E
:102EB00030380240000C024000B587B000BF00204F
:102EC00001902C48006840F002002A49086008463A
:102ED000006800F00200019000BF00BF00BF0020AA
:102EE00001900846006840F4807008600846006859
:102EF00000F48070019000BF00BF00BF002001906F
:102F00000846006840F0080008600846006800F0C5
:102F10000800019000BF00BF232002900120039011
:102F200004900320059002A91348FDF715FF8020A7
:102F300002900120039004900320059002A90F48FD
:102F4000FDF70AFF802002900120039004900320E7
:102F5000059002A90A48FDF7FFFE01221146064826
:102F6000FEF708F8012202210348FEF703F807B034
:102F700000BD000030380240000402400020024042
:102F8000000C024018B5044606480094008B401E11
:102F900083B20448C08A401E82B20021084600F075
:102FA0002DF818BDF413002070B58CB004460E4601
:102FB0001546082000900494069609956846FEF789
:102FC00005FB10B900200CB070BD0120FBE700002C
:102FD0000949487530B98988074AD182114609885C
:102FE000118308E0012806D103490988024AD182E9
:102FF0001146898811837047F41300202DE9F84F9A
:1030000004460D4616464FF0000CDFF8449199F83F
:103010001590B9F1000F04D02046294632461F46CC
:1030200011E02846DFF82891D9F80490A9EB0609A9
:10303000A9F101011A46DFF81891D9F80490A9EB1B
:103040000409A9F10107DFF80891B9F80090A2EB93
:10305000000A0AF1010AA9EB0A091FFA89F8DFF848
:10306000F09099F81490DFF8ECA05AF82990DFF866
:10307000E0A0DAF81CA0DFF8D8B0DBF800B00BFB5A
:10308000010B0AFB0B9E00BF4FF00009CDF800902A
:10309000DFF8C490D9F8009049F40009DFF8B8A02F
:1030A000CAF80090D146D9F8009009F40009CDF88B
:1030B000009000BF00BFDFF8A490D9F8009029F07D
:1030C0000109DFF898A0CAF800904FF44039CAF817
:1030D00000904FF00209CAF83490D146C9F84080F8
:1030E000C9F83CE0A7EB010909F10109A2EB000ACC
:1030F0000AF1010A49EA0A49DFF860A0CAF84490D7
:10310000DDF82890CAF83890D146D9F8009049F0F7
:103110000109CAF8009005E00CF1010CBCF5001F94
:1031200000D308E0DFF83490D9F8049009F00209E0
:10313000B9F1000FF0D000BFDFF82090D9F8089067
:1031400049F00209DFF814A0CAF80890BDE8F88F2A
:10315000F41300206C0000203038024000B0024020
:103160001FB54FF4F070334908604FF48870486021
:103170004FF4003204214FF49070FFF715FF2D48F3
:1031800000882D4908802B488088488002202949E2
:10319000C8612A482A4908602A482B49086000204B
:1031A0004860002128488160C160016103214161BC
:1031B00081612E21C1610F21016240F20E21416225
:1031C00040F21F11816240F21621C16240F22711C4
:1031D0000163002180F8361080F8351080F8341033
:1031E000FDF71EFF002007210622CDE90002CDE9F0
:1031F00002101348FF2302220168002000F028F883
:103200000C48808880B200900A48008883B200226F
:103210001146104600F05AF80120FFF7D9FE0020B1
:1032200000F06CF80120094908600020FFF7AAFEB1
:103230001FBD0000F4130020C8120020000000C0D1
:103240006C000020006801400C130020A482424260
:103250002DE9F04F8DB005460E4617469846DDE93C
:1032600017ABDDF85890199C00200090029015488B
:10327000006801901348406803900497CDF81480CB
:10328000CDF818904FEA0A2007904FEA0B200890DB
:1032900009960C4800680A900A4840680B90002084
:1032A00001148DF8321001128DF83110E0B28DF852
:1032B00030002A4669460448FDF782FE0DB0BDE89D
:1032C000F08F0000F41300200C1300202DE9F041D2
:1032D00004460E4617461D46DDF8188023463A463A
:1032E00031460548FEF758F823464246294602482B
:1032F000FEF788F8BDE8F0810C130020014908753D
:1033000070470000F4130020F0B5002300240025CE
:103310008E880768FF68C7F30B473E44330406688E
:103320008436802707FB0266766806F470470668D5
:1033300084364FF0800C0CFB026677600E680768DD
:10334000FF68C7F30B473E44761C1E43076884376B
:103350000CFB02777E608E890768FF68C7F30A0757
:103360003E44330406688436802707FB0266B6684D
:1033700006F47047066884360CFB0266B7608E68F8
:103380000768FF68C7F30A073E44761C1E430768B8
:1033900084370CFB0277BE6006688436802707FB03
:1033A0000266366926F00707066884360CFB02665B
:1033B00037610F69066884360CFB02663761312677
:1033C000765C33023226765C34040E7E350606685F
:1033D0008436802707FB0266B669002706688436B4
:1033E0000CFB0266B76191F830601E4326432E4302
:1033F000076884370CFB0277BE6106688436802735
:1034000007FB0266766926F0FF07066884360CFB28
:10341000026677614F69066884360CFB0266776145
:1034200006688436802707FB0266F76940F2077654
:10343000B743066884360CFB0266F761D1E907677B
:103440003E43076884370CFB0277FE6106688436CA
:10345000802707FB0266B66A0027066884360CFBE5
:103460000266B7624F6A066884360CFB0266B76272
:103470000E690EB9042313E00E69012E01D1032356
:103480000EE00E69042E08D00E69022E05D00E69DA
:10349000032E02D00E69072E01D1022300E0012382
:1034A00006688436802707FB0266F66A06F0E02786
:1034B000066884364FF0800C0CFB0266F762D1E997
:1034C0000076F61B5E43F71C0E8D5E4347EA064707
:1034D000066884360CFB0266F7620668843680272D
:1034E00007FB0266366BF70AFF02066884360CFBA0
:1034F00002663763CF6A066884360CFB0266376360
:1035000006688436D701F65946F001070668843606
:103510004FEAC21C46F80C70F0BD000008B500BFB1
:10352000002000904648006840F4001044490860BC
:103530000846006800F40010009000BF00BF00BF04
:1035400040484149086308463E49886300BF3F48F8
:1035500008604FF00060486040213A4881600021D7
:10356000C1604FF480610161002141618161C161ED
:103570004FF4803101620021416203218162002108
:10358000C1620163FDF732FA2E48FDF76DFB00BF03
:103590002F482D49486308462D49886300BF2B48B2
:1035A000183808604FF000604860002128488160AA
:1035B000C1604FF480610161002141618161C1619D
:1035C0004FF48031016200214162FDF70FFA20487B
:1035D000FDF74AFB002211462620FDF75AFF262060
:1035E000FDF74AFF012203211020FDF752FF1020B2
:1035F000FDF742FF022203211120FDF74AFF1120AF
:10360000FDF73AFF10480068C06840F010000E490E
:103610000968C8600B480068006840F0100009495C
:10362000096808600A480068006840F0100008490E
:1036300009680860C82207490348FFF79BFB08BDDB
:10364000303802408419002014190020A060024084
:10365000DC1900203414002070B504460E461546CF
:1036600021680A1D2B463146206BFDF73FFB206881
:10367000406940F080002168486170BD00BFFEE7EE
:103680007047000002480068C0F302207047000045
:103690000CED00E010B5002807DA0A07140E054A01
:1036A00000F00F031B1FD45403E00A07130E024A55
:1036B000135410BD18ED00E000E400E010B502481E
:1036C00000F04EFD10BD00007009002070470000A2
:1036D00010B50248FEF704FE10BD000014140020CF
:1036E000014600BF080900EB8000420001F00F0016
:1036F0001044C0B270470146002203E0521CA1F101
:103700000A00C1B20A29F9DA100741EA10607047CD
:1037100070B5044600252068C06800F04000A0B9DC
:10372000681E2168C860FDF72BFC054607E0FDF721
:1037300027FC401BB0F57A7F01D9032070BD2068BB
:10374000C06800F040000028F1D00020F6E700003B
:1037500010B5174817490860002048607F211548B8
:103760008160FF21C1600021016141618161FEF73B
:1037700043FE08B1022010BD00210E48FEF7D9FC1F
:1037800045F25001884211D0402338223B211720B6
:1037900000F028F807231B220C210F2000F00CF862
:1037A00045F2500200210348FEF7CCFC0020E2E77E
:1037B0000028004014140020F8B504460D461746B2
:1037C0001E468DF802708DF801508DF800608DF85E
:1037D0000340002269460248FEF796FEF8BD00004D
:1037E00014140020F0B585B004460D4616461F4659
:1037F0008DF800408DF801508DF802608DF803704F
:10380000002003900490002269460248FEF706FF5C
:1038100005B0F0BD1414002070B504460D460C48E8
:103820000068C06800F0800060F490600849096892
:10383000C860224629460648FEF78EFC0222114641
:103840000320FDF726FE0320FDF716FE70BD0000E5
:103850001414002010B50248FEF716FD10BD00003C
:103860001414002000B587B01748184908600020DC
:1038700048600021154881600421C1601021016168
:10388000402141614FF4C07181610021C1614FF459
:10389000006101624900416249008162022000909A
:1038A00008200190062002900390022004900590C9
:1038B0000620069069460548FEF767FF034800F0BA
:1038C00007F807B000BD0000400100A0D81200209A
:1038D00070B505460024002301221146184600F069
:1038E00021F84FF4FA7001F081FC0023012202213B
:1038F000184600F017F8002308220321184600F0AC
:1039000011F84FF40C74234601220421002000F02A
:1039100009F840F26A510248FFF716F870BD00003E
:10392000D81200202DE9FF4104460D4616461F46D9
:103930004FF0000814B94FF0100803E0012C01D13A
:103940004FF008080095CDF80480029603974FF4D5
:10395000805269460448FFF70BF818B9002004B0FC
:10396000BDE8F0810120FAE7D8120020704700007E
:103970002DE9F04192B00546884616461F460024C0
:1039800000BF002000902648006840F08050244985
:1039900008600846006800F08050009000BF00BF3B
:1039A00000BF002000901F48006840F440401D49BF
:1039B00008600846006800F44040009000BF00BF67
:1039C00001200690079002200C9041050D91CDF842
:1039D00038800F951096119706A8FEF7A5F90446B2
:1039E0000CB100BFFEE7FDF793FD04460CB100BF2C
:1039F000FEE70F20019002200290002003904FF478
:103A0000A05004904FF480500590052101A8FDF7C7
:103A100091FF04460CB100BFFEE712B0BDE8F08193
:103A2000403802400070004010B5FDF7AFFA10BDFD
:103A30001448006840F47000124908601248006899
:103A400040F001001049086000200F49083108606B
:103A50000D4800680D4908400B4908600C48091DD5
:103A60000860081F006820F48020091F08600020FB
:103A700005490C3108604FF0006002498039086048
:103A80007047000088ED00E000380240FFFFF6FEBE
:103A90001030002408B5244800680068C0F34010C6
:103AA00048B34FF47A73012269461F48FFF7E6F8DE
:103AB0001E48008800F40040E8B91C48008800F463
:103AC000804070B19DF800000A2803D000201749FB
:103AD000088024E01548008840F40040134908801D
:103AE0001DE09DF800000D2806D11048008840F424
:103AF00080400E49088012E09DF800000B490988BB
:103B0000C1F30D010A4A505408480088401C074977
:103B1000088008460088C72801DD00200880024888
:103B2000FEF78FFF08BD000038120020680000205B
:103B30007011002070B50546AC6B0020E085E08474
:103B4000012084F83900E06B40F01000E06320466B
:103B5000FEF776FF70BD70B50546AC6B286800684F
:103B600000F4807090B90020E0852068406920F062
:103B700040002168486194F83900322803D11220AE
:103B800084F8390002E0012084F839002046FFF76C
:103B900041F970BD70B50446A56B2846FFF73BF9A7
:103BA00070BD10B504462068C06820F04000216850
:103BB000C86094F83900322803D1222084F83900F3
:103BC00002E0012084F839002046FFF725F90020A3
:103BD00010BD70B50446002694F83960222E01D03D
:103BE000322E52D1A068B0F5805F13D1A56A20694A
:103BF00040B920684068C0F308002880A06A801C93
:103C0000A06219E020684068C0B22880A06A401C09
:103C1000A06211E0206938B920684068C1B2A26A88
:103C2000501CA062117007E02068406800F07F011E
:103C3000A26A501CA0621170E08D401E80B2E08527
:103C400008BB2068C06820F020002168C86094F894
:103C50003900322803D1122084F839000EE02068A0
:103C6000C06820F480702168C8602068406920F036
:103C7000010021684861012084F839002046FFF7DF
:103C8000C9F8002070BD0020FCE70220FAE7000020
:103C90002DE9F041044600252068056925F44055CA
:103CA000E0680543206805612068C56849F20C603A
:103CB00085432169A068084361690843E1690843B5
:103CC00005432068C5602068456925F44075A069F2
:103CD000054320684561E069B0F5004F72D1734932
:103CE0002068884203D072492068884234D1FDF7A9
:103CF000ABFF00EBC00101EB001061684900B0FBB5
:103D0000F1F06421B0FBF1F6FDF79EFF00EBC0017E
:103D100001EB001061684900B0FBF1F7FDF794FF7B
:103D200000EBC00101EB001061684900B0FBF1F04D
:103D30006421B0FBF1F000EBC00101EB0010A7EB38
:103D40008000322101EB00106421B0FBF1F066F33A
:103D50001F1021688860A6E0FDF760FF00EBC0013E
:103D600001EB001061684900B0FBF1F06421B0FB89
:103D7000F1F6FDF753FF00EBC00101EB00106168A5
:103D80004900B0FBF1F7FDF749FF00EBC00101EB83
:103D9000001061684900B0FBF1F06421B0FBF1F064
:103DA00000EBC00101EB0010A7EB8000322101EB1A
:103DB00000106421B0FBF1F066F31F1021688860E9
:103DC00071E0FFE739492068884203D0384920680C
:103DD000884234D1FDF738FF00EBC00101EB001041
:103DE00061688900B0FBF1F06421B0FBF1F6FDF7EA
:103DF0002BFF00EBC00101EB001061688900B0FBF4
:103E0000F1F7FDF721FF00EBC00101EB0010616845
:103E10008900B0FBF1F06421B0FBF1F000EBC001D0
:103E200001EB0010A7EB8000322101EB00106421B0
:103E3000B0FBF1F066F31F102168886033E0FDF7F6
:103E4000EDFE00EBC00101EB001061688900B0FBE2
:103E5000F1F06421B0FBF1F6FDF7E0FE00EBC001EC
:103E600001EB001061688900B0FBF1F7FDF7D6FEA9
:103E700000EBC00101EB001061688900B0FBF1F0BC
:103E80006421B0FBF1F000EBC00101EB0010A7EBE7
:103E90008000322101EB00106421B0FBF1F066F3E9
:103EA0001F1021688860BDE8F0810000001001400B
:103EB0000014014010B50146002391F83930122B4F
:103EC00001D0322B2CD18868B0F5805F0FD10A6AFF
:103ED0001088C0F308000C686060086918B9086AA7
:103EE000801C086209E0086A401C086205E00C6A50
:103EF000601C086220780C686060C88C401E80B22C
:103F0000C88458B90868C06820F080000C68E06078
:103F10000868C06840F040000C68E060002010BDF8
:103F20000220FCE72DE9F04104460E4617461D46E7
:103F30004FF00008FDF724F880469FBB2BE0681C7B
:103F400048B32DB1FDF71CF8A0EB0800A84222D918
:103F50002068C06820F080002168C8602068C068C0
:103F600020F020002168C8602068C06820F48070BC
:103F70002168C8602068406920F00100216848611C
:103F8000012084F8390000BF002084F8380000BF09
:103F90000320BDE8F081206800683040B04202D1C3
:103FA000012001E003E000200028C8D035E02AE02D
:103FB000681C40B32DB1FCF7E3FFA0EB0800A8425A
:103FC00021D92068C06820F080002168C86020687E
:103FD000C06820F020002168C8602068C06820F414
:103FE00080702168C8602068406920F00100216865
:103FF0004861012084F8390000BF002084F83800AF
:1040000000BF0320C5E7206800683040B04201D1FE
:10401000012000E000200028CAD10020B9E70000FC
:1040200008B5114800680068C0F30010B8B100BFBF
:10403000002000900C480068006800900A48006862
:104040004068009000BF00BF084800684068C0F1A9
:10405000C8000749A1F80C0401200649087002486D
:10406000FEF7EFFC08BD000014190020DC19002049
:10407000341400207800002010B586B0044600BF3C
:10408000002000902548006840F400302349086073
:104090000846006800F40030009000BF00BF00BF79
:1040A000002000901D481038006840F001001B49B6
:1040B000103908600846006800F00100009000BF59
:1040C00000BF0420019002200290012003900320F1
:1040D00004900720059001A91148FCF73DFE082037
:1040E00001901220029001200390032004900720E9
:1040F000059001A90A48FCF72FFE0A480A49086002
:104100000846446000218160C160016181610C2129
:104110004161FEF72EFD06B010BD000040380240A0
:104120000000024000440040141900200146012212
:10413000C1F810230020704710B504460021204626
:1041400000F071F80020E1688861401EE168486174
:10415000204600F069F80021C4F81013002010BDBB
:1041600038B50546002400200090284600F0F9F8F4
:10417000002847D0284600F0FEF80090009808B9C3
:10418000002038BD0098C0F3C00018B1284600F0E8
:10419000E1FF04430098C0F3001018B1284600F076
:1041A00026FF04430098C0F3401018B1284600F0E1
:1041B00052FD04430098C0F3806018B1284600F017
:1041C0007FFE04430098C0F3406018B1284600F019
:1041D0002CF904430098C0F3006018B1284600F0A1
:1041E000D1FD04430098C0F3407018B1284600F098
:1041F000E3F804430098C0F3405018B1284600F09B
:10420000F1F804432046BCE701460022C1F814231C
:104210000020704701460122C1F814230020704796
:10422000014600207047704708B501460020002273
:104230000092009A22F00102521C0092CA68926811
:10424000009B9A43CB689A6008BD0146C8684069E4
:1042500000F0010070471CB50246002000230093C7
:10426000009B23F0004303F1004300930124009BD3
:1042700064F3DC43009302F1900353F82130009C77
:104280001C6102F1900353F821301B680193019BDC
:1042900023F0004303F100430193019B23F080438B
:1042A000019302F1900353F82130019C1C601CBD66
:1042B00010B586B00246002000230393019302F15B
:1042C000900353F821301B680093009B23F0804338
:1042D00003F180430093009BC3F3814323B1009B10
:1042E000C3F38143022B11D1D368DB6A0393039B91
:1042F000C3F30743DBB9009B23F00043009302F1B3
:10430000900353F82130009C1C6010E053691B6936
:104310000193019BC3F307434BB9009B23F0004378
:10432000009302F1900353F82130009C1C60009B25
:1043300023F0004303F10043009302F1900353F88C
:104340002130009C1C6006B010BD08B5426912689F
:104350000092009A61F301020092009B426913608F
:1043600008BD00B502461046FFF76FFF012800D1D7
:1043700000BD0020FCE701460020CA685069CA68F9
:104380009269104070470146486940697047F0B52E
:1043900003460024D01CC71700EB9777BD10D3F855
:1043A000D06000BF03E030680860091D641CAC42A7
:1043B000F9D30846F0BD000038B50446002000904F
:1043C00007480068816820468847009820F0005020
:1043D00000F1005000900098E1684861012038BD6C
:1043E000B40000200CB50146D1F8900000680090A0
:1043F000009820F0004000F100400090009820F06C
:10440000804000F180400090009AD1F89000026056
:1044100000200190019820F4001000F50010019098
:104420000198CA68506101200CBD7CB50546002486
:1044300000262846FFF7A7FF019000BF1BE0019868
:1044400080B20121A1400840A0B105F1900050F8D0
:104450002400006800900098C0F3C03028B12146C5
:10446000284600F00DF8064304E02146284600F0F7
:1044700016FA0643641C2878A042E0D830467CBD7A
:1044800070B586B005460C4605F1900050F82460E2
:10449000B0680590F0680490DDE9041008400590CC
:1044A00005F1900050F8240000680390002004906B
:1044B0000598C0F38000D0B100200190019820F051
:1044C0000400001D01900198B06005F1900050F8C3
:1044D0002400C0680190019820F00200801C019027
:1044E00005F1900050F824000199C16073E005982F
:1044F000C0F3401048B100200190019820F0200046
:10450000203001900198B06065E00598C0F3C000CC
:1045100078B305F1900050F82400C068019001982C
:1045200020F00200801C019005F1900050F824005A
:104530000199C160052105F56470015500200190C5
:10454000019820F01000103001900198B060002018
:104550000190019820F00800083001900198B060A7
:10456000059820F010000590E1B22846FFF7A0FE64
:1045700031E0FFE70598C0F3802060B305F19000BB
:1045800050F82400C0680190019820F00200801CBF
:10459000019005F1900050F824000199C160E1B24A
:1045A0002846FFF785FE00200190019820F01000BA
:1045B000103001900198B060082105F56470015534
:1045C00000200190019820F4806000F58060019047
:1045D0000198B06000BF0598C0F34020F8B105F124
:1045E000900050F82400C0680190019820F002006B
:1045F000801C019005F1900050F824000199C160E1
:10460000E1B22846FFF754FE00200190019820F403
:10461000007000F5007001900198B0603CE10598D1
:1046200000F00100002871D0E878012812D105F1CE
:10463000900050F824000069029005F56C7000EBC2
:10464000441000690299C1F31201411A05F5557031
:1046500040F82410012105F56470015500217838D7
:1046600040F8241000200190019820F00100401C27
:1046700001900198B0600398C0F3814020B1039885
:10468000C0F3814002282AD105F1900050F824009F
:10469000C0680190019820F00200801C019005F193
:1046A000900050F824000199C160E1B22846FFF75C
:1046B000FFFD00200190019820F0100010300190C3
:1046C0000198B06005F56C7000EB4410007E80F03E
:1046D000010105F56C7000EB44100176DCE00398F5
:1046E000C0F38140032899D1039820F0005000F1D5
:1046F0000050039005F1900050F8240003990160E8
:10470000012105F29F300155C6E0FFE70598C0F38F
:104710004000002851D005F1900050F82400C068F6
:104720000190019820F00200019005F1900050F8EE
:1047300024000199C16005F56470005D012804D171
:10474000012105F29F3001552DE005F56470005DF3
:10475000052804D1042105F29F30015523E005F519
:104760006470005D062804D005F56470005D0828BB
:1047700008D1002105F5467040F824100321873048
:10478000015510E00398C0F3814003280BD105F5D3
:104790006C7000EB4410007E80F0010105F56C7038
:1047A00000EB4410017600200190019820F00200F7
:1047B000801C01900198B0606EE00598C0F3C010B5
:1047C00010B305F1900050F82400C06801900198E2
:1047D00020F00200801C019005F1900050F82400A8
:1047E0000199C160062105F564700155E1B22846C2
:1047F000FFF75EFD00200190019820F080008030DE
:1048000001900198B06047E00598C0F30010E0B354
:104810000398C0F38140032816D105F1900050F8A9
:104820002400C0680190019820F00200801C0190D3
:1048300005F1900050F824000199C160E87818B99A
:10484000E1B22846FFF734FD032105F564700155F8
:1048500000200190019820F0100010300190019884
:10486000B0600398C0F3814020B10398C0F3814049
:10487000022811D1039820F0004000F1004003907D
:10488000039820F08040039000E005E005F19000DF
:1048900050F8240003990160012006B070BD7FB577
:1048A00005460C4605F1900050F82460B06803906E
:1048B000F0680290DDE902100840039005F19000D5
:1048C00050F82400006801900398C0F38000D0B134
:1048D00000200090009820F00400001D0090009837
:1048E000B06005F1900050F82400C0680090009876
:1048F00020F00200801C009005F1900050F8240088
:104900000099C160A4E10398C0F3401048B10020B1
:104910000090009820F02000203000900098B060B7
:1049200096E10398C0F34020F8B105F1900050F8EB
:104930002400C0680090009820F00200801C0090C5
:1049400005F1900050F824000099C160E1B22846BA
:10495000FFF7AEFC00200090009820F4007000F5F6
:10496000007000900098B06072E1039800F00100C0
:1049700038B3002105F5467040F8241005F1900089
:1049800050F82400C0680090009820F00200801CBD
:10499000009005F1900050F824000099C160E1B248
:1049A0002846FFF785FC00200090009820F00100C9
:1049B000401C00900098B060012105F5647001551D
:1049C00046E10398C0F3C00010B3002000900098A7
:1049D00020F00800083000900098B06005F19000C9
:1049E00050F82400C0680090009820F00200801C5D
:1049F000009005F1900050F824000099C160E1B2E8
:104A00002846FFF755FC052105F5647001551FE1A7
:104A10000398C0F3001048B3002105F5467040F834
:104A2000241005F1900050F82400C0680090009810
:104A300020F00200801C009005F1900050F8240046
:104A40000099C160E87818B9E1B22846FFF730FC58
:104A500000200090009820F0100010300090009886
:104A6000B060032105F564700155F1E00398C0F3CF
:104A7000C01010B305F1900050F82400C0680090F9
:104A8000009820F00200801C009005F1900050F882
:104A900024000099C160E1B22846FFF709FC062115
:104AA00005F56470015500200090009820F080000A
:104AB000803000900098B060CAE00398C0F3801086
:104AC00048B3002105F5467040F8241005F1900028
:104AD00050F82400C0680090009820F00200801C6C
:104AE000009005F1900050F824000099C160E8782A
:104AF00018B9E1B22846FFF7DBFB002000900098D0
:104B000020F04000403000900098B060042105F58E
:104B1000647001559CE00398C0F3802060B305F1F8
:104B2000900050F82400C0680090009820F0020027
:104B3000801C009005F1900050F824000099C1609D
:104B4000E1B22846FFF7B4FB00200090009820F067
:104B50001000103000900098B060082105F56470D6
:104B6000015500200090009820F4806000F58060DE
:104B700000900098B0606BE00398C0F340000028FC
:104B800066D005F1900050F82400C06800900098AD
:104B900020F00200009005F1900050F824000099E8
:104BA000C16005F56470005D012815D1012105F291
:104BB0009F3001550198C0F3814002283ED105F590
:104BC0006C7000EB4410407E80F0010105F56C70C4
:104BD00000EB4410417631E005F56470005D032878
:104BE00004D1022105F29F30015527E005F56470DC
:104BF000005D04280FD105F56C7000EB44100079BE
:104C0000012803D1E1B22846FFF725FB022105F276
:104C10009F30015512E005F56470005D052804D150
:104C2000042105F29F30015508E005F56470005D30
:104C3000062803D1032105F29F3001550020009082
:104C4000009820F00200801C00900098B06000BF27
:104C5000012004B070BD7FB50446E068C06A0090D2
:104C60000198C0F3C30104F56C7000EB41100069BA
:104C7000C01CC0F38F0673E04FF6FF71009801EA85
:104C800080050198C0F3C30104F56C7000EB41107E
:104C90000069A84215D20198C0F3C30104F56C70F5
:104CA00000EB4110008A85B200200390039820F0A9
:104CB000200020300390E068806903998843E16810
:104CC00088610198C0F3C30104F56C7000EB4110DA
:104CD0000069C01CC0F38F060198C0F3C302C0F383
:104CE000C30304F56C7000EB43102B46C1682046EB
:104CF00000F046FA0198C0F3C30104F56C7000EBB4
:104D00004110C06841190198C0F3C30204F56C70EA
:104D100000EB4210C1600198C0F3C30104F56C7050
:104D200000EB41100069411B0198C0F3C30204F578
:104D30006C7000EB421001610198C0F3C30104F5EF
:104D40006C7000EB4110406941190198C0F3C30237
:104D500004F56C7000EB42104161E068C06A00909D
:104D6000009880B2B0420ADD0198C0F3C30104F597
:104D70006C7000EB4110006900287FF47DAF0120CA
:104D800004B070BD7FB5044600250020009001905E
:104D900003900290D4F8CC0000680390D4F8CC00C3
:104DA00000680290029820F004000290029820F01F
:104DB00002000290029820F008000290029820F071
:104DC000200002900398C0F3400058B1029820F0F0
:104DD0000200801C029039480068416820468847DC
:104DE00045F001050398C0F3C000002853D0029895
:104DF00020F00800083002900398C0F380000028DB
:104E000044D00398C0F34140022804D00398C0F373
:104E10004140012825D16069006801900398C0F3E2
:104E2000414002281DD141F27071606941600198D2
:104E300000F00300022814D0207A022804D10221B5
:104E40002046FFF782FA0CE04BF680316069416042
:104E5000019800F00300012803D001212046FFF74C
:104E600074FA16480068C168204688470020009000
:104E7000009820F0005000F100500090E068806938
:104E8000009988430843E168886104E00B480068A2
:104E90000169204688470398C0F3401030B102985A
:104EA00020F020002030029045F001050299D4F84E
:104EB000CC000160284604B070BD0000B4000020A2
:104EC000FEB504466069006900900198C0F3C30113
:104ED00004F56C7000EB41100069C01CC0F38F0634
:104EE00074E04FF6FF71009801EA80050198C0F365
:104EF000C30104F56C7000EB41100069A84216D2A2
:104F00000198C0F3C30104F56C7000EB4110008AF6
:104F100085B200200290029820F0806000F180604D
:104F20000290E068806902998843E168886101988D
:104F3000C0F3C30104F56C7000EB41100069C01CA4
:104F4000C0F38F060198C0F3C302C0F3C30304F596
:104F50006C7000EB43102B46C168204600F010F93E
:104F60000198C0F3C30104F56C7000EB4110C068F8
:104F700041190198C0F3C30204F56C7000EB4210B4
:104F8000C1600198C0F3C30104F56C7000EB4110DF
:104F90000069411B0198C0F3C30204F56C7000EB7B
:104FA000421001610198C0F3C30104F56C7000EB7D
:104FB0004110406941190198C0F3C30204F56C70B7
:104FC00000EB42104161606900690090009880B276
:104FD000B0420ADD0198C0F3C30104F56C7000EB28
:104FE0004110006900287FF47CAF0120FEBD30B580
:104FF00085B00446002000900390039820F0100034
:1050000010300390E068806903998843E168886103
:10501000E068006A0490049800F00F00009004F12A
:1050200090009DF8001050F821000068019004984D
:10503000C0F34340022806D0032878D0052877D053
:10504000072873D175E00498C0F30A10002869DDC1
:1050500004F56C709DF8001000EB4110C06800284A
:1050600060D00498C0F30A1204F56C709DF800300B
:1050700000EB4310C1682046FFF789F9049800F05F
:105080000F0104F56C7000EB4110C0680499C1F386
:105090000A110144049800F00F0204F56C7000EB53
:1050A0004210C160049800F00F0104F56C7000EB31
:1050B000411040690499C1F30A110144049800F0B9
:1050C0000F0204F56C7000EB4210416104F56C7046
:1050D0009DF8001000EB4110456904F555709DF8EE
:1050E000001040F8215004F190009DF8001050F895
:1050F0002100006902900298C0F3C940002811DD28
:10510000019820F0004000F100400190019820F04B
:105110008040019004F190009DF80020019950F822
:105120002200016006E002E002E0FFE700BF00BFEE
:1051300000BF00BF00BF039820F0100010300390A4
:10514000E068806903990843E1688861012005B03F
:1051500030BD000038B504460020009007480068C4
:10516000016820468847009820F008000830009029
:105170000098E1684861012038BD0000B4000020BB
:105180002DE9F04104460026E078B0B90027002060
:10519000DD1C4FEAE57805EB98784FEAA80704F1A3
:1051A000D00555F822C000BF04E00D68CCF80050CF
:1051B000091D401CB842F8D300BF3046BDE8F0815D
:1051C00000BFFEE730380A2801D2012070470020D6
:1051D000704700BF7047000010B504460420FDF77B
:1051E000E4FB0148046010BD6000002070B5034678
:1051F00000224FF0E02675690D4E366803FB06F479
:105200004FF0E026B16910E04FF0E026B069884227
:105210000BD0884202D20E1A324402E02E1A0E44FB
:1052200032440146A24200D300E0EDE700BF70BD6A
:10523000600000207047000000F078F84FF4E13083
:10524000FEF71AFFFEF76AF9FDF736FE19E00D4981
:105250000DA0FBF721F80DA0FBF71EF81048007811
:1052600001280CD100200E4908700E48FDF7CBFB39
:105270000D48B0F80C2401460A48FEF7EDF9FDF799
:10528000D3FDE4E7C000002025730000646F2073A5
:105290006F6D657468696E672E2E2E200A000000FF
:1052A00078000020141900203414002010B50446A2
:1052B000074951F824108A00064951F824000021BA
:1052C00000F02AF8012103480C30015510BD000000
:1052D000E85300089000002010B50146002300228A
:1052E00007E00B4850F8210050F8220000B15B1C89
:1052F000521C084850F821009042F2D84FF47A70BE
:105300005843044C54F82140B0FBF4F080B210BD77
:1053100090000020E853000830B5034601E003F890
:10532000011B141EA2F10102F9D130BD10B50823F2
:10533000022219214FF4B470FEF71AFBC020FFF7C8
:105340004BFF4FF4E13000F027F8FDF787FDFEF743
:1053500089FAFDF764FDFEF7FBF900210420FEF752
:105360005BFA0020FFF7A2FF0120FFF79FFF02205A
:10537000FFF79CFF002205490548FDF70DF80022C4
:1053800004490348FCF7E2FF10BD0000C8080020F4
:10539000141400203C00002010B5044607480849BA
:1053A00008600846446000218160C160016181613C
:1053B0000C214161FDF7DDFB10BD000000780040CD
:1053C000381200204FF04070E1EE100A70470000E4
:1053D0000000010203040102030406070809000695
:1053E0001016000610160000000500000040010025
:1053F000C00300004000000040000000400000002A
:10540000004001000000500000F00000040000080F
:105410000000000000000002000100001000000079
:105420004154313131310D0A00000000504F5354C6
:10543000202F74652D312F76312F616C61726D458F
:1054400076656E747320485454502F312E310D0AF6
:10545000557365722D4167656E743A204D6F7A6998
:105460006C6C612F342E302028636F6D706174690D
:10547000626C653B204D53494520352E30303B2032
:1054800057696E646F7773203938290D0A436F6E40
:1054900074656E742D547970653A206170706C6912
:1054A000636174696F6E2F6A736F6E0D0A486F7354
:1054B000743A203139322E3136382E332E3133358D
:1054C0000D0A436F6E74656E742D4C656E6774685B
:1054D0003A203231330D0A0D0A7B22636F64652254
:1054E0003A223132333435363738222C226C696E09
:1054F0006B223A312C2264617461223A5B7B226315
:105500006F6E74726F6C6C65725F747970655F63D7
:105510006F6465223A31342C22636F6E74726F6C43
:105520006C65725F6E756D223A312C2265717569FA
:10553000706D656E745F6E756D223A342C226D6FDE
:1055400064756C655F6E756D223A302C226C6F6FDE
:10555000705F6E756D223A312C22616464725F6EE9
:10556000756D223A342C226368616E5F6E756D2210
:105570003A302C226465765F636F6465223A313875
:105580002C226461746574696D65223A223230326E
:105590003030363234313834313435222C2265768D
:1055A000745F636F6465223A3239367D5D7D000039
:1055B000333A6677776F726B65722E42494E000000
:1055C000E055000800000020C0000000E8010008CD
:1055D000A0560008C0000020E08501000402000879
:1055E000000000002C5400080000000020540008B7
:1055F0007E0001205A0000000000000000000000B2
:10560000000000000024F400000000000000000082
:105610000102030406070809B05500080000000055
:10562000000000000000000000000000000000007A
:10563000FFFFFFFF0000000000000000000000006E
:10564000000000000000000000000000000000005A
:10565000000000000000000000000000AD52000843
:10566000D9520008401A002000401FC0000000105E
:10567000405A012000406FC000F000100000000000
:10568000214200082D410008394100081542000858
:1056900009420008A00000200000000000000000F7
:04000005080001AD41
:00000001FF
